{
  "_format": "hh-sol-artifact-1",
  "contractName": "ScoreManager",
  "sourceName": "contracts/ScoreManager.sol",
  "abi": [
    {
      "inputs": [],
      "stateMutability": "nonpayable",
      "type": "constructor"
    },
    {
      "inputs": [
        {
          "internalType": "string",
          "name": "studentId",
          "type": "string"
        }
      ],
      "name": "getAllScores",
      "outputs": [
        {
          "internalType": "string[]",
          "name": "subjectIds",
          "type": "string[]"
        },
        {
          "internalType": "string[]",
          "name": "studentIds",
          "type": "string[]"
        },
        {
          "internalType": "uint256[]",
          "name": "values",
          "type": "uint256[]"
        }
      ],
      "stateMutability": "view",
      "type": "function"
    },
    {
      "inputs": [
        {
          "internalType": "string",
          "name": "studentId",
          "type": "string"
        },
        {
          "internalType": "string",
          "name": "subjectId",
          "type": "string"
        }
      ],
      "name": "getScore",
      "outputs": [
        {
          "components": [
            {
              "internalType": "string",
              "name": "studentId",
              "type": "string"
            },
            {
              "internalType": "string",
              "name": "subjectId",
              "type": "string"
            },
            {
              "internalType": "uint256",
              "name": "value",
              "type": "uint256"
            }
          ],
          "internalType": "struct ScoreManager.Score",
          "name": "",
          "type": "tuple"
        }
      ],
      "stateMutability": "view",
      "type": "function"
    },
    {
      "inputs": [],
      "name": "owner",
      "outputs": [
        {
          "internalType": "address",
          "name": "",
          "type": "address"
        }
      ],
      "stateMutability": "view",
      "type": "function"
    },
    {
      "inputs": [
        {
          "internalType": "string",
          "name": "studentId",
          "type": "string"
        },
        {
          "internalType": "string",
          "name": "subjectId",
          "type": "string"
        },
        {
          "internalType": "uint256",
          "name": "value",
          "type": "uint256"
        }
      ],
      "name": "setScore",
      "outputs": [],
      "stateMutability": "nonpayable",
      "type": "function"
    }
  ],
  "bytecode": "0x6080604052348015600f57600080fd5b5033600260006101000a81548173ffffffffffffffffffffffffffffffffffffffff021916908373ffffffffffffffffffffffffffffffffffffffff160217905550611252806100606000396000f3fe608060405234801561001057600080fd5b506004361061004c5760003560e01c80633af3b085146100515780635e49feaa1461006d5780638da5cb5b1461009d578063fcc29b8e146100bb575b600080fd5b61006b600480360381019061006691906109d3565b6100ed565b005b61008760048036038101906100829190610a5e565b6102a6565b6040516100949190610bbb565b60405180910390f35b6100a561045f565b6040516100b29190610c1e565b60405180910390f35b6100d560048036038101906100d09190610c39565b610485565b6040516100e493929190610df3565b60405180910390f35b600260009054906101000a900473ffffffffffffffffffffffffffffffffffffffff1673ffffffffffffffffffffffffffffffffffffffff163373ffffffffffffffffffffffffffffffffffffffff161461017d576040517f08c379a000000000000000000000000000000000000000000000000000000000815260040161017490610e9c565b60405180910390fd5b6000808460405161018e9190610ef8565b9081526020016040518091039020836040516101aa9190610ef8565b90815260200160405180910390206002015403610213576001836040516101d19190610ef8565b908152602001604051809103902082908060018154018082558091505060019003906000526020600020016000909190919091509081610211919061111b565b505b60405180606001604052808481526020018381526020018281525060008460405161023e9190610ef8565b90815260200160405180910390208360405161025a9190610ef8565b9081526020016040518091039020600082015181600001908161027d919061111b565b506020820151816001019081610293919061111b565b5060408201518160020155905050505050565b6102ae610822565b600080846040516102bf9190610ef8565b9081526020016040518091039020836040516102db9190610ef8565b908152602001604051809103902060405180606001604052908160008201805461030490610f3e565b80601f016020809104026020016040519081016040528092919081815260200182805461033090610f3e565b801561037d5780601f106103525761010080835404028352916020019161037d565b820191906000526020600020905b81548152906001019060200180831161036057829003601f168201915b5050505050815260200160018201805461039690610f3e565b80601f01602080910402602001604051908101604052809291908181526020018280546103c290610f3e565b801561040f5780601f106103e45761010080835404028352916020019161040f565b820191906000526020600020905b8154815290600101906020018083116103f257829003601f168201915b50505050508152602001600282015481525050905060008160400151036104545760405180606001604052808581526020018481526020016000815250915050610459565b809150505b92915050565b600260009054906101000a900473ffffffffffffffffffffffffffffffffffffffff1681565b6060806060600060018560405161049c9190610ef8565b9081526020016040518091039020805480602002602001604051908101604052809291908181526020016000905b828210156105765783829060005260206000200180546104e990610f3e565b80601f016020809104026020016040519081016040528092919081815260200182805461051590610f3e565b80156105625780601f1061053757610100808354040283529160200191610562565b820191906000526020600020905b81548152906001019060200180831161054557829003601f168201915b5050505050815260200190600101906104ca565b5050505090506000815167ffffffffffffffff81111561059957610598610872565b5b6040519080825280602002602001820160405280156105cc57816020015b60608152602001906001900390816105b75790505b5090506000825167ffffffffffffffff8111156105ec576105eb610872565b5b60405190808252806020026020018201604052801561061a5781602001602082028036833780820191505090505b50905060005b835181101561080e576000808960405161063a9190610ef8565b908152602001604051809103902085838151811061065b5761065a6111ed565b5b60200260200101516040516106709190610ef8565b908152602001604051809103902060405180606001604052908160008201805461069990610f3e565b80601f01602080910402602001604051908101604052809291908181526020018280546106c590610f3e565b80156107125780601f106106e757610100808354040283529160200191610712565b820191906000526020600020905b8154815290600101906020018083116106f557829003601f168201915b5050505050815260200160018201805461072b90610f3e565b80601f016020809104026020016040519081016040528092919081815260200182805461075790610f3e565b80156107a45780601f10610779576101008083540402835291602001916107a4565b820191906000526020600020905b81548152906001019060200180831161078757829003601f168201915b50505050508152602001600282015481525050905080600001518483815181106107d1576107d06111ed565b5b602002602001018190525080604001518383815181106107f4576107f36111ed565b5b602002602001018181525050508080600101915050610620565b508282829550955095505050509193909250565b60405180606001604052806060815260200160608152602001600081525090565b6000604051905090565b600080fd5b600080fd5b600080fd5b600080fd5b6000601f19601f8301169050919050565b7f4e487b7100000000000000000000000000000000000000000000000000000000600052604160045260246000fd5b6108aa82610861565b810181811067ffffffffffffffff821117156108c9576108c8610872565b5b80604052505050565b60006108dc610843565b90506108e882826108a1565b919050565b600067ffffffffffffffff82111561090857610907610872565b5b61091182610861565b9050602081019050919050565b82818337600083830152505050565b600061094061093b846108ed565b6108d2565b90508281526020810184848401111561095c5761095b61085c565b5b61096784828561091e565b509392505050565b600082601f83011261098457610983610857565b5b813561099484826020860161092d565b91505092915050565b6000819050919050565b6109b08161099d565b81146109bb57600080fd5b50565b6000813590506109cd816109a7565b92915050565b6000806000606084860312156109ec576109eb61084d565b5b600084013567ffffffffffffffff811115610a0a57610a09610852565b5b610a168682870161096f565b935050602084013567ffffffffffffffff811115610a3757610a36610852565b5b610a438682870161096f565b9250506040610a54868287016109be565b9150509250925092565b60008060408385031215610a7557610a7461084d565b5b600083013567ffffffffffffffff811115610a9357610a92610852565b5b610a9f8582860161096f565b925050602083013567ffffffffffffffff811115610ac057610abf610852565b5b610acc8582860161096f565b9150509250929050565b600081519050919050565b600082825260208201905092915050565b60005b83811015610b10578082015181840152602081019050610af5565b60008484015250505050565b6000610b2782610ad6565b610b318185610ae1565b9350610b41818560208601610af2565b610b4a81610861565b840191505092915050565b610b5e8161099d565b82525050565b60006060830160008301518482036000860152610b818282610b1c565b91505060208301518482036020860152610b9b8282610b1c565b9150506040830151610bb06040860182610b55565b508091505092915050565b60006020820190508181036000830152610bd58184610b64565b905092915050565b600073ffffffffffffffffffffffffffffffffffffffff82169050919050565b6000610c0882610bdd565b9050919050565b610c1881610bfd565b82525050565b6000602082019050610c336000830184610c0f565b92915050565b600060208284031215610c4f57610c4e61084d565b5b600082013567ffffffffffffffff811115610c6d57610c6c610852565b5b610c798482850161096f565b91505092915050565b600081519050919050565b600082825260208201905092915050565b6000819050602082019050919050565b6000610cba8383610b1c565b905092915050565b6000602082019050919050565b6000610cda82610c82565b610ce48185610c8d565b935083602082028501610cf685610c9e565b8060005b85811015610d325784840389528151610d138582610cae565b9450610d1e83610cc2565b925060208a01995050600181019050610cfa565b50829750879550505050505092915050565b600081519050919050565b600082825260208201905092915050565b6000819050602082019050919050565b6000610d7c8383610b55565b60208301905092915050565b6000602082019050919050565b6000610da082610d44565b610daa8185610d4f565b9350610db583610d60565b8060005b83811015610de6578151610dcd8882610d70565b9750610dd883610d88565b925050600181019050610db9565b5085935050505092915050565b60006060820190508181036000830152610e0d8186610ccf565b90508181036020830152610e218185610ccf565b90508181036040830152610e358184610d95565b9050949350505050565b600082825260208201905092915050565b7f4e6f7420616c6c6f776564000000000000000000000000000000000000000000600082015250565b6000610e86600b83610e3f565b9150610e9182610e50565b602082019050919050565b60006020820190508181036000830152610eb581610e79565b9050919050565b600081905092915050565b6000610ed282610ad6565b610edc8185610ebc565b9350610eec818560208601610af2565b80840191505092915050565b6000610f048284610ec7565b915081905092915050565b7f4e487b7100000000000000000000000000000000000000000000000000000000600052602260045260246000fd5b60006002820490506001821680610f5657607f821691505b602082108103610f6957610f68610f0f565b5b50919050565b60008190508160005260206000209050919050565b60006020601f8301049050919050565b600082821b905092915050565b600060088302610fd17fffffffffffffffffffffffffffffffffffffffffffffffffffffffffffffffff82610f94565b610fdb8683610f94565b95508019841693508086168417925050509392505050565b6000819050919050565b600061101861101361100e8461099d565b610ff3565b61099d565b9050919050565b6000819050919050565b61103283610ffd565b61104661103e8261101f565b848454610fa1565b825550505050565b600090565b61105b61104e565b611066818484611029565b505050565b5b8181101561108a5761107f600082611053565b60018101905061106c565b5050565b601f8211156110cf576110a081610f6f565b6110a984610f84565b810160208510156110b8578190505b6110cc6110c485610f84565b83018261106b565b50505b505050565b600082821c905092915050565b60006110f2600019846008026110d4565b1980831691505092915050565b600061110b83836110e1565b9150826002028217905092915050565b61112482610ad6565b67ffffffffffffffff81111561113d5761113c610872565b5b6111478254610f3e565b61115282828561108e565b600060209050601f8311600181146111855760008415611173578287015190505b61117d85826110ff565b8655506111e5565b601f19841661119386610f6f565b60005b828110156111bb57848901518255600182019150602085019450602081019050611196565b868310156111d857848901516111d4601f8916826110e1565b8355505b6001600288020188555050505b505050505050565b7f4e487b7100000000000000000000000000000000000000000000000000000000600052603260045260246000fdfea26469706673582212204559e71584612b0f5253f53552c2f9ee7d9ada0b786d5c46cfac6483c08a2cb964736f6c634300081c0033",
  "linkReferences": {},
  "deployedLinkReferences": {}
}