{
  "_format": "hh-sol-artifact-1",
  "contractName": "ScoreManager",
  "sourceName": "contracts/ScoreManager.sol",
  "abi": [
    {
      "inputs": [
        {
          "internalType": "string",
          "name": "studentId",
          "type": "string"
        }
      ],
      "name": "getAllScores",
      "outputs": [
        {
          "internalType": "string[]",
          "name": "subjectIds",
          "type": "string[]"
        },
        {
          "internalType": "string[]",
          "name": "studentIdsList",
          "type": "string[]"
        },
        {
          "internalType": "uint256[]",
          "name": "values",
          "type": "uint256[]"
        }
      ],
      "stateMutability": "view",
      "type": "function"
    },
    {
      "inputs": [
        {
          "internalType": "string",
          "name": "studentId",
          "type": "string"
        },
        {
          "internalType": "string",
          "name": "subjectId",
          "type": "string"
        }
      ],
      "name": "getScore",
      "outputs": [
        {
          "components": [
            {
              "internalType": "string",
              "name": "studentId",
              "type": "string"
            },
            {
              "internalType": "string",
              "name": "subjectId",
              "type": "string"
            },
            {
              "internalType": "uint256",
              "name": "value",
              "type": "uint256"
            }
          ],
          "internalType": "struct ScoreManager.Score",
          "name": "",
          "type": "tuple"
        }
      ],
      "stateMutability": "view",
      "type": "function"
    },
    {
      "inputs": [
        {
          "internalType": "string",
          "name": "studentId",
          "type": "string"
        },
        {
          "internalType": "string",
          "name": "subjectId",
          "type": "string"
        },
        {
          "internalType": "uint256",
          "name": "value",
          "type": "uint256"
        }
      ],
      "name": "setScore",
      "outputs": [],
      "stateMutability": "nonpayable",
      "type": "function"
    }
  ],
  "bytecode": "0x6080604052348015600f57600080fd5b5061109a8061001f6000396000f3fe608060405234801561001057600080fd5b50600436106100415760003560e01c80633af3b085146100465780635e49feaa14610062578063fcc29b8e14610092575b600080fd5b610060600480360381019061005b91906108f4565b6100c4565b005b61007c6004803603810190610077919061097f565b6101ed565b6040516100899190610adc565b60405180910390f35b6100ac60048036038101906100a79190610afe565b6103a6565b6040516100bb93929190610cb8565b60405180910390f35b600080846040516100d59190610d40565b9081526020016040518091039020836040516100f19190610d40565b9081526020016040518091039020600201540361015a576001836040516101189190610d40565b9081526020016040518091039020829080600181540180825580915050600190039060005260206000200160009091909190915090816101589190610f63565b505b6040518060600160405280848152602001838152602001828152506000846040516101859190610d40565b9081526020016040518091039020836040516101a19190610d40565b908152602001604051809103902060008201518160000190816101c49190610f63565b5060208201518160010190816101da9190610f63565b5060408201518160020155905050505050565b6101f5610743565b600080846040516102069190610d40565b9081526020016040518091039020836040516102229190610d40565b908152602001604051809103902060405180606001604052908160008201805461024b90610d86565b80601f016020809104026020016040519081016040528092919081815260200182805461027790610d86565b80156102c45780601f10610299576101008083540402835291602001916102c4565b820191906000526020600020905b8154815290600101906020018083116102a757829003601f168201915b505050505081526020016001820180546102dd90610d86565b80601f016020809104026020016040519081016040528092919081815260200182805461030990610d86565b80156103565780601f1061032b57610100808354040283529160200191610356565b820191906000526020600020905b81548152906001019060200180831161033957829003601f168201915b505050505081526020016002820154815250509050600081604001510361039b57604051806060016040528085815260200184815260200160008152509150506103a0565b809150505b92915050565b606080606060006001856040516103bd9190610d40565b9081526020016040518091039020805480602002602001604051908101604052809291908181526020016000905b8282101561049757838290600052602060002001805461040a90610d86565b80601f016020809104026020016040519081016040528092919081815260200182805461043690610d86565b80156104835780601f1061045857610100808354040283529160200191610483565b820191906000526020600020905b81548152906001019060200180831161046657829003601f168201915b5050505050815260200190600101906103eb565b5050505090506000815167ffffffffffffffff8111156104ba576104b9610793565b5b6040519080825280602002602001820160405280156104ed57816020015b60608152602001906001900390816104d85790505b5090506000825167ffffffffffffffff81111561050d5761050c610793565b5b60405190808252806020026020018201604052801561053b5781602001602082028036833780820191505090505b50905060005b835181101561072f576000808960405161055b9190610d40565b908152602001604051809103902085838151811061057c5761057b611035565b5b60200260200101516040516105919190610d40565b90815260200160405180910390206040518060600160405290816000820180546105ba90610d86565b80601f01602080910402602001604051908101604052809291908181526020018280546105e690610d86565b80156106335780601f1061060857610100808354040283529160200191610633565b820191906000526020600020905b81548152906001019060200180831161061657829003601f168201915b5050505050815260200160018201805461064c90610d86565b80601f016020809104026020016040519081016040528092919081815260200182805461067890610d86565b80156106c55780601f1061069a576101008083540402835291602001916106c5565b820191906000526020600020905b8154815290600101906020018083116106a857829003601f168201915b50505050508152602001600282015481525050905080600001518483815181106106f2576106f1611035565b5b6020026020010181905250806040015183838151811061071557610714611035565b5b602002602001018181525050508080600101915050610541565b508282829550955095505050509193909250565b60405180606001604052806060815260200160608152602001600081525090565b6000604051905090565b600080fd5b600080fd5b600080fd5b600080fd5b6000601f19601f8301169050919050565b7f4e487b7100000000000000000000000000000000000000000000000000000000600052604160045260246000fd5b6107cb82610782565b810181811067ffffffffffffffff821117156107ea576107e9610793565b5b80604052505050565b60006107fd610764565b905061080982826107c2565b919050565b600067ffffffffffffffff82111561082957610828610793565b5b61083282610782565b9050602081019050919050565b82818337600083830152505050565b600061086161085c8461080e565b6107f3565b90508281526020810184848401111561087d5761087c61077d565b5b61088884828561083f565b509392505050565b600082601f8301126108a5576108a4610778565b5b81356108b584826020860161084e565b91505092915050565b6000819050919050565b6108d1816108be565b81146108dc57600080fd5b50565b6000813590506108ee816108c8565b92915050565b60008060006060848603121561090d5761090c61076e565b5b600084013567ffffffffffffffff81111561092b5761092a610773565b5b61093786828701610890565b935050602084013567ffffffffffffffff81111561095857610957610773565b5b61096486828701610890565b9250506040610975868287016108df565b9150509250925092565b600080604083850312156109965761099561076e565b5b600083013567ffffffffffffffff8111156109b4576109b3610773565b5b6109c085828601610890565b925050602083013567ffffffffffffffff8111156109e1576109e0610773565b5b6109ed85828601610890565b9150509250929050565b600081519050919050565b600082825260208201905092915050565b60005b83811015610a31578082015181840152602081019050610a16565b60008484015250505050565b6000610a48826109f7565b610a528185610a02565b9350610a62818560208601610a13565b610a6b81610782565b840191505092915050565b610a7f816108be565b82525050565b60006060830160008301518482036000860152610aa28282610a3d565b91505060208301518482036020860152610abc8282610a3d565b9150506040830151610ad16040860182610a76565b508091505092915050565b60006020820190508181036000830152610af68184610a85565b905092915050565b600060208284031215610b1457610b1361076e565b5b600082013567ffffffffffffffff811115610b3257610b31610773565b5b610b3e84828501610890565b91505092915050565b600081519050919050565b600082825260208201905092915050565b6000819050602082019050919050565b6000610b7f8383610a3d565b905092915050565b6000602082019050919050565b6000610b9f82610b47565b610ba98185610b52565b935083602082028501610bbb85610b63565b8060005b85811015610bf75784840389528151610bd88582610b73565b9450610be383610b87565b925060208a01995050600181019050610bbf565b50829750879550505050505092915050565b600081519050919050565b600082825260208201905092915050565b6000819050602082019050919050565b6000610c418383610a76565b60208301905092915050565b6000602082019050919050565b6000610c6582610c09565b610c6f8185610c14565b9350610c7a83610c25565b8060005b83811015610cab578151610c928882610c35565b9750610c9d83610c4d565b925050600181019050610c7e565b5085935050505092915050565b60006060820190508181036000830152610cd28186610b94565b90508181036020830152610ce68185610b94565b90508181036040830152610cfa8184610c5a565b9050949350505050565b600081905092915050565b6000610d1a826109f7565b610d248185610d04565b9350610d34818560208601610a13565b80840191505092915050565b6000610d4c8284610d0f565b915081905092915050565b7f4e487b7100000000000000000000000000000000000000000000000000000000600052602260045260246000fd5b60006002820490506001821680610d9e57607f821691505b602082108103610db157610db0610d57565b5b50919050565b60008190508160005260206000209050919050565b60006020601f8301049050919050565b600082821b905092915050565b600060088302610e197fffffffffffffffffffffffffffffffffffffffffffffffffffffffffffffffff82610ddc565b610e238683610ddc565b95508019841693508086168417925050509392505050565b6000819050919050565b6000610e60610e5b610e56846108be565b610e3b565b6108be565b9050919050565b6000819050919050565b610e7a83610e45565b610e8e610e8682610e67565b848454610de9565b825550505050565b600090565b610ea3610e96565b610eae818484610e71565b505050565b5b81811015610ed257610ec7600082610e9b565b600181019050610eb4565b5050565b601f821115610f1757610ee881610db7565b610ef184610dcc565b81016020851015610f00578190505b610f14610f0c85610dcc565b830182610eb3565b50505b505050565b600082821c905092915050565b6000610f3a60001984600802610f1c565b1980831691505092915050565b6000610f538383610f29565b9150826002028217905092915050565b610f6c826109f7565b67ffffffffffffffff811115610f8557610f84610793565b5b610f8f8254610d86565b610f9a828285610ed6565b600060209050601f831160018114610fcd5760008415610fbb578287015190505b610fc58582610f47565b86555061102d565b601f198416610fdb86610db7565b60005b8281101561100357848901518255600182019150602085019450602081019050610fde565b86831015611020578489015161101c601f891682610f29565b8355505b6001600288020188555050505b505050505050565b7f4e487b7100000000000000000000000000000000000000000000000000000000600052603260045260246000fdfea2646970667358221220b547280bec01926f5c147a7cc9621a4dfacba64724833ab07988ccedf5b082df64736f6c634300081c0033",
  "linkReferences": {},
  "deployedLinkReferences": {}
}