{
  "_format": "hh-sol-artifact-1",
  "contractName": "ScoreManager",
  "sourceName": "contracts/ScoreManager.sol",
  "abi": [
    {
      "inputs": [],
      "stateMutability": "nonpayable",
      "type": "constructor"
    },
    {
      "inputs": [
        {
          "internalType": "string",
          "name": "studentId",
          "type": "string"
        },
        {
          "internalType": "string",
          "name": "subjectId",
          "type": "string"
        }
      ],
      "name": "getScore",
      "outputs": [
        {
          "components": [
            {
              "internalType": "string",
              "name": "studentId",
              "type": "string"
            },
            {
              "internalType": "string",
              "name": "subjectId",
              "type": "string"
            },
            {
              "internalType": "uint256",
              "name": "value",
              "type": "uint256"
            }
          ],
          "internalType": "struct ScoreManager.Score",
          "name": "",
          "type": "tuple"
        }
      ],
      "stateMutability": "view",
      "type": "function"
    },
    {
      "inputs": [],
      "name": "owner",
      "outputs": [
        {
          "internalType": "address",
          "name": "",
          "type": "address"
        }
      ],
      "stateMutability": "view",
      "type": "function"
    },
    {
      "inputs": [
        {
          "internalType": "string",
          "name": "studentId",
          "type": "string"
        },
        {
          "internalType": "string",
          "name": "subjectId",
          "type": "string"
        },
        {
          "internalType": "uint256",
          "name": "value",
          "type": "uint256"
        }
      ],
      "name": "setScore",
      "outputs": [],
      "stateMutability": "nonpayable",
      "type": "function"
    }
  ],
  "bytecode": "0x6080604052348015600f57600080fd5b5033600160006101000a81548173ffffffffffffffffffffffffffffffffffffffff021916908373ffffffffffffffffffffffffffffffffffffffff160217905550610c2f806100606000396000f3fe608060405234801561001057600080fd5b50600436106100415760003560e01c80633af3b085146100465780635e49feaa146100625780638da5cb5b14610092575b600080fd5b610060600480360381019061005b9190610579565b6100b0565b005b61007c60048036038101906100779190610604565b6101d3565b6040516100899190610761565b60405180910390f35b61009a6103a2565b6040516100a791906107c4565b60405180910390f35b600160009054906101000a900473ffffffffffffffffffffffffffffffffffffffff1673ffffffffffffffffffffffffffffffffffffffff163373ffffffffffffffffffffffffffffffffffffffff1614610140576040517f08c379a00000000000000000000000000000000000000000000000000000000081526004016101379061083c565b60405180910390fd5b60405180606001604052808481526020018381526020018281525060008460405161016b9190610898565b9081526020016040518091039020836040516101879190610898565b908152602001604051809103902060008201518160000190816101aa9190610abb565b5060208201518160010190816101c09190610abb565b5060408201518160020155905050505050565b6101db6103c8565b600080846040516101ec9190610898565b9081526020016040518091039020836040516102089190610898565b9081526020016040518091039020604051806060016040529081600082018054610231906108de565b80601f016020809104026020016040519081016040528092919081815260200182805461025d906108de565b80156102aa5780601f1061027f576101008083540402835291602001916102aa565b820191906000526020600020905b81548152906001019060200180831161028d57829003601f168201915b505050505081526020016001820180546102c3906108de565b80601f01602080910402602001604051908101604052809291908181526020018280546102ef906108de565b801561033c5780601f106103115761010080835404028352916020019161033c565b820191906000526020600020905b81548152906001019060200180831161031f57829003601f168201915b5050505050815260200160028201548152505090506000816040015111610398576040517f08c379a000000000000000000000000000000000000000000000000000000000815260040161038f90610bd9565b60405180910390fd5b8091505092915050565b600160009054906101000a900473ffffffffffffffffffffffffffffffffffffffff1681565b60405180606001604052806060815260200160608152602001600081525090565b6000604051905090565b600080fd5b600080fd5b600080fd5b600080fd5b6000601f19601f8301169050919050565b7f4e487b7100000000000000000000000000000000000000000000000000000000600052604160045260246000fd5b61045082610407565b810181811067ffffffffffffffff8211171561046f5761046e610418565b5b80604052505050565b60006104826103e9565b905061048e8282610447565b919050565b600067ffffffffffffffff8211156104ae576104ad610418565b5b6104b782610407565b9050602081019050919050565b82818337600083830152505050565b60006104e66104e184610493565b610478565b90508281526020810184848401111561050257610501610402565b5b61050d8482856104c4565b509392505050565b600082601f83011261052a576105296103fd565b5b813561053a8482602086016104d3565b91505092915050565b6000819050919050565b61055681610543565b811461056157600080fd5b50565b6000813590506105738161054d565b92915050565b600080600060608486031215610592576105916103f3565b5b600084013567ffffffffffffffff8111156105b0576105af6103f8565b5b6105bc86828701610515565b935050602084013567ffffffffffffffff8111156105dd576105dc6103f8565b5b6105e986828701610515565b92505060406105fa86828701610564565b9150509250925092565b6000806040838503121561061b5761061a6103f3565b5b600083013567ffffffffffffffff811115610639576106386103f8565b5b61064585828601610515565b925050602083013567ffffffffffffffff811115610666576106656103f8565b5b61067285828601610515565b9150509250929050565b600081519050919050565b600082825260208201905092915050565b60005b838110156106b657808201518184015260208101905061069b565b60008484015250505050565b60006106cd8261067c565b6106d78185610687565b93506106e7818560208601610698565b6106f081610407565b840191505092915050565b61070481610543565b82525050565b6000606083016000830151848203600086015261072782826106c2565b9150506020830151848203602086015261074182826106c2565b915050604083015161075660408601826106fb565b508091505092915050565b6000602082019050818103600083015261077b818461070a565b905092915050565b600073ffffffffffffffffffffffffffffffffffffffff82169050919050565b60006107ae82610783565b9050919050565b6107be816107a3565b82525050565b60006020820190506107d960008301846107b5565b92915050565b600082825260208201905092915050565b7f4e6f7420616c6c6f776564000000000000000000000000000000000000000000600082015250565b6000610826600b836107df565b9150610831826107f0565b602082019050919050565b6000602082019050818103600083015261085581610819565b9050919050565b600081905092915050565b60006108728261067c565b61087c818561085c565b935061088c818560208601610698565b80840191505092915050565b60006108a48284610867565b915081905092915050565b7f4e487b7100000000000000000000000000000000000000000000000000000000600052602260045260246000fd5b600060028204905060018216806108f657607f821691505b602082108103610909576109086108af565b5b50919050565b60008190508160005260206000209050919050565b60006020601f8301049050919050565b600082821b905092915050565b6000600883026109717fffffffffffffffffffffffffffffffffffffffffffffffffffffffffffffffff82610934565b61097b8683610934565b95508019841693508086168417925050509392505050565b6000819050919050565b60006109b86109b36109ae84610543565b610993565b610543565b9050919050565b6000819050919050565b6109d28361099d565b6109e66109de826109bf565b848454610941565b825550505050565b600090565b6109fb6109ee565b610a068184846109c9565b505050565b5b81811015610a2a57610a1f6000826109f3565b600181019050610a0c565b5050565b601f821115610a6f57610a408161090f565b610a4984610924565b81016020851015610a58578190505b610a6c610a6485610924565b830182610a0b565b50505b505050565b600082821c905092915050565b6000610a9260001984600802610a74565b1980831691505092915050565b6000610aab8383610a81565b9150826002028217905092915050565b610ac48261067c565b67ffffffffffffffff811115610add57610adc610418565b5b610ae782546108de565b610af2828285610a2e565b600060209050601f831160018114610b255760008415610b13578287015190505b610b1d8582610a9f565b865550610b85565b601f198416610b338661090f565b60005b82811015610b5b57848901518255600182019150602085019450602081019050610b36565b86831015610b785784890151610b74601f891682610a81565b8355505b6001600288020188555050505b505050505050565b7f53636f7265206e6f7420666f756e640000000000000000000000000000000000600082015250565b6000610bc3600f836107df565b9150610bce82610b8d565b602082019050919050565b60006020820190508181036000830152610bf281610bb6565b905091905056fea26469706673582212209db913a278e74d512eb896d58b1ba86621d65449ceb61bde022b5075dd18a99064736f6c634300081c0033",
  "linkReferences": {},
  "deployedLinkReferences": {}
}