{
  "_format": "hh-sol-artifact-1",
  "contractName": "ScoreManager",
  "sourceName": "contracts/ScoreManager.sol",
  "abi": [
    {
      "anonymous": false,
      "inputs": [
        {
          "indexed": true,
          "internalType": "string",
          "name": "studentId",
          "type": "string"
        },
        {
          "indexed": true,
          "internalType": "string",
          "name": "subjectId",
          "type": "string"
        },
        {
          "indexed": false,
          "internalType": "uint256",
          "name": "value",
          "type": "uint256"
        }
      ],
      "name": "ScoreAdded",
      "type": "event"
    },
    {
      "anonymous": false,
      "inputs": [
        {
          "indexed": true,
          "internalType": "string",
          "name": "studentId",
          "type": "string"
        },
        {
          "indexed": true,
          "internalType": "string",
          "name": "subjectId",
          "type": "string"
        },
        {
          "indexed": false,
          "internalType": "uint256",
          "name": "oldValue",
          "type": "uint256"
        },
        {
          "indexed": false,
          "internalType": "uint256",
          "name": "newValue",
          "type": "uint256"
        }
      ],
      "name": "ScoreUpdated",
      "type": "event"
    },
    {
      "inputs": [
        {
          "internalType": "string",
          "name": "studentId",
          "type": "string"
        },
        {
          "internalType": "string",
          "name": "subjectId",
          "type": "string"
        },
        {
          "internalType": "uint256",
          "name": "value",
          "type": "uint256"
        }
      ],
      "name": "addScore",
      "outputs": [],
      "stateMutability": "nonpayable",
      "type": "function"
    },
    {
      "inputs": [
        {
          "internalType": "string",
          "name": "studentId",
          "type": "string"
        }
      ],
      "name": "getAllScores",
      "outputs": [
        {
          "internalType": "string[]",
          "name": "subjectIds",
          "type": "string[]"
        },
        {
          "internalType": "string[]",
          "name": "studentIdsList",
          "type": "string[]"
        },
        {
          "internalType": "uint256[]",
          "name": "values",
          "type": "uint256[]"
        }
      ],
      "stateMutability": "view",
      "type": "function"
    },
    {
      "inputs": [
        {
          "internalType": "string",
          "name": "studentId",
          "type": "string"
        },
        {
          "internalType": "string",
          "name": "subjectId",
          "type": "string"
        }
      ],
      "name": "getScore",
      "outputs": [
        {
          "components": [
            {
              "internalType": "string",
              "name": "studentId",
              "type": "string"
            },
            {
              "internalType": "string",
              "name": "subjectId",
              "type": "string"
            },
            {
              "internalType": "uint256",
              "name": "value",
              "type": "uint256"
            }
          ],
          "internalType": "struct ScoreManager.Score",
          "name": "",
          "type": "tuple"
        }
      ],
      "stateMutability": "view",
      "type": "function"
    },
    {
      "inputs": [
        {
          "internalType": "string",
          "name": "studentId",
          "type": "string"
        },
        {
          "internalType": "string",
          "name": "subjectId",
          "type": "string"
        },
        {
          "internalType": "uint256",
          "name": "value",
          "type": "uint256"
        }
      ],
      "name": "updateScore",
      "outputs": [],
      "stateMutability": "nonpayable",
      "type": "function"
    }
  ],
  "bytecode": "0x6080604052348015600f57600080fd5b506115258061001f6000396000f3fe608060405234801561001057600080fd5b506004361061004c5760003560e01c8063343bf0c8146100515780635e49feaa1461006d578063efc1db4b1461009d578063fcc29b8e146100b9575b600080fd5b61006b60048036038101906100669190610bd7565b6100eb565b005b61008760048036038101906100829190610c62565b610302565b6040516100949190610dbf565b60405180910390f35b6100b760048036038101906100b29190610bd7565b6104bb565b005b6100d360048036038101906100ce9190610de1565b610689565b6040516100e293929190610f9b565b60405180910390f35b600083511180156100fd575060008251115b61013c576040517f08c379a000000000000000000000000000000000000000000000000000000000815260040161013390611044565b60405180910390fd5b6000808460405161014d91906110a0565b90815260200160405180910390208360405161016991906110a0565b908152602001604051809103902060020154146101bb576040517f08c379a00000000000000000000000000000000000000000000000000000000081526004016101b290611103565b60405180910390fd5b6001836040516101cb91906110a0565b90815260200160405180910390208290806001815401808255809150506001900390600052602060002001600090919091909150908161020b919061132f565b5060405180606001604052808481526020018381526020018281525060008460405161023791906110a0565b90815260200160405180910390208360405161025391906110a0565b90815260200160405180910390206000820151816000019081610276919061132f565b50602082015181600101908161028c919061132f565b5060408201518160020155905050816040516102a891906110a0565b6040518091039020836040516102be91906110a0565b60405180910390207f9dd7942af90b71a683b46a98c230906f592ff7d8ed78366aa6cadc9827654268836040516102f59190611410565b60405180910390a3505050565b61030a610a26565b6000808460405161031b91906110a0565b90815260200160405180910390208360405161033791906110a0565b908152602001604051809103902060405180606001604052908160008201805461036090611152565b80601f016020809104026020016040519081016040528092919081815260200182805461038c90611152565b80156103d95780601f106103ae576101008083540402835291602001916103d9565b820191906000526020600020905b8154815290600101906020018083116103bc57829003601f168201915b505050505081526020016001820180546103f290611152565b80601f016020809104026020016040519081016040528092919081815260200182805461041e90611152565b801561046b5780601f106104405761010080835404028352916020019161046b565b820191906000526020600020905b81548152906001019060200180831161044e57829003601f168201915b50505050508152602001600282015481525050905060008160400151036104b057604051806060016040528085815260200184815260200160008152509150506104b5565b809150505b92915050565b600083511180156104cd575060008251115b61050c576040517f08c379a000000000000000000000000000000000000000000000000000000000815260040161050390611044565b60405180910390fd5b6000808460405161051d91906110a0565b90815260200160405180910390208360405161053991906110a0565b908152602001604051809103902060020154905060008103610590576040517f08c379a000000000000000000000000000000000000000000000000000000000815260040161058790611477565b60405180910390fd5b6040518060600160405280858152602001848152602001838152506000856040516105bb91906110a0565b9081526020016040518091039020846040516105d791906110a0565b908152602001604051809103902060008201518160000190816105fa919061132f565b506020820151816001019081610610919061132f565b50604082015181600201559050508260405161062c91906110a0565b60405180910390208460405161064291906110a0565b60405180910390207fd5298e39e479fb197dfdc09be435605c798aed997bfb1d13f8f0f8eab0c7df3b838560405161067b929190611497565b60405180910390a350505050565b606080606060006001856040516106a091906110a0565b9081526020016040518091039020805480602002602001604051908101604052809291908181526020016000905b8282101561077a5783829060005260206000200180546106ed90611152565b80601f016020809104026020016040519081016040528092919081815260200182805461071990611152565b80156107665780601f1061073b57610100808354040283529160200191610766565b820191906000526020600020905b81548152906001019060200180831161074957829003601f168201915b5050505050815260200190600101906106ce565b5050505090506000815167ffffffffffffffff81111561079d5761079c610a76565b5b6040519080825280602002602001820160405280156107d057816020015b60608152602001906001900390816107bb5790505b5090506000825167ffffffffffffffff8111156107f0576107ef610a76565b5b60405190808252806020026020018201604052801561081e5781602001602082028036833780820191505090505b50905060005b8351811015610a12576000808960405161083e91906110a0565b908152602001604051809103902085838151811061085f5761085e6114c0565b5b602002602001015160405161087491906110a0565b908152602001604051809103902060405180606001604052908160008201805461089d90611152565b80601f01602080910402602001604051908101604052809291908181526020018280546108c990611152565b80156109165780601f106108eb57610100808354040283529160200191610916565b820191906000526020600020905b8154815290600101906020018083116108f957829003601f168201915b5050505050815260200160018201805461092f90611152565b80601f016020809104026020016040519081016040528092919081815260200182805461095b90611152565b80156109a85780601f1061097d576101008083540402835291602001916109a8565b820191906000526020600020905b81548152906001019060200180831161098b57829003601f168201915b50505050508152602001600282015481525050905080600001518483815181106109d5576109d46114c0565b5b602002602001018190525080604001518383815181106109f8576109f76114c0565b5b602002602001018181525050508080600101915050610824565b508282829550955095505050509193909250565b60405180606001604052806060815260200160608152602001600081525090565b6000604051905090565b600080fd5b600080fd5b600080fd5b600080fd5b6000601f19601f8301169050919050565b7f4e487b7100000000000000000000000000000000000000000000000000000000600052604160045260246000fd5b610aae82610a65565b810181811067ffffffffffffffff82111715610acd57610acc610a76565b5b80604052505050565b6000610ae0610a47565b9050610aec8282610aa5565b919050565b600067ffffffffffffffff821115610b0c57610b0b610a76565b5b610b1582610a65565b9050602081019050919050565b82818337600083830152505050565b6000610b44610b3f84610af1565b610ad6565b905082815260208101848484011115610b6057610b5f610a60565b5b610b6b848285610b22565b509392505050565b600082601f830112610b8857610b87610a5b565b5b8135610b98848260208601610b31565b91505092915050565b6000819050919050565b610bb481610ba1565b8114610bbf57600080fd5b50565b600081359050610bd181610bab565b92915050565b600080600060608486031215610bf057610bef610a51565b5b600084013567ffffffffffffffff811115610c0e57610c0d610a56565b5b610c1a86828701610b73565b935050602084013567ffffffffffffffff811115610c3b57610c3a610a56565b5b610c4786828701610b73565b9250506040610c5886828701610bc2565b9150509250925092565b60008060408385031215610c7957610c78610a51565b5b600083013567ffffffffffffffff811115610c9757610c96610a56565b5b610ca385828601610b73565b925050602083013567ffffffffffffffff811115610cc457610cc3610a56565b5b610cd085828601610b73565b9150509250929050565b600081519050919050565b600082825260208201905092915050565b60005b83811015610d14578082015181840152602081019050610cf9565b60008484015250505050565b6000610d2b82610cda565b610d358185610ce5565b9350610d45818560208601610cf6565b610d4e81610a65565b840191505092915050565b610d6281610ba1565b82525050565b60006060830160008301518482036000860152610d858282610d20565b91505060208301518482036020860152610d9f8282610d20565b9150506040830151610db46040860182610d59565b508091505092915050565b60006020820190508181036000830152610dd98184610d68565b905092915050565b600060208284031215610df757610df6610a51565b5b600082013567ffffffffffffffff811115610e1557610e14610a56565b5b610e2184828501610b73565b91505092915050565b600081519050919050565b600082825260208201905092915050565b6000819050602082019050919050565b6000610e628383610d20565b905092915050565b6000602082019050919050565b6000610e8282610e2a565b610e8c8185610e35565b935083602082028501610e9e85610e46565b8060005b85811015610eda5784840389528151610ebb8582610e56565b9450610ec683610e6a565b925060208a01995050600181019050610ea2565b50829750879550505050505092915050565b600081519050919050565b600082825260208201905092915050565b6000819050602082019050919050565b6000610f248383610d59565b60208301905092915050565b6000602082019050919050565b6000610f4882610eec565b610f528185610ef7565b9350610f5d83610f08565b8060005b83811015610f8e578151610f758882610f18565b9750610f8083610f30565b925050600181019050610f61565b5085935050505092915050565b60006060820190508181036000830152610fb58186610e77565b90508181036020830152610fc98185610e77565b90508181036040830152610fdd8184610f3d565b9050949350505050565b600082825260208201905092915050565b7f496e76616c696420696473000000000000000000000000000000000000000000600082015250565b600061102e600b83610fe7565b915061103982610ff8565b602082019050919050565b6000602082019050818103600083015261105d81611021565b9050919050565b600081905092915050565b600061107a82610cda565b6110848185611064565b9350611094818560208601610cf6565b80840191505092915050565b60006110ac828461106f565b915081905092915050565b7f53636f726520616c726561647920657869737473000000000000000000000000600082015250565b60006110ed601483610fe7565b91506110f8826110b7565b602082019050919050565b6000602082019050818103600083015261111c816110e0565b9050919050565b7f4e487b7100000000000000000000000000000000000000000000000000000000600052602260045260246000fd5b6000600282049050600182168061116a57607f821691505b60208210810361117d5761117c611123565b5b50919050565b60008190508160005260206000209050919050565b60006020601f8301049050919050565b600082821b905092915050565b6000600883026111e57fffffffffffffffffffffffffffffffffffffffffffffffffffffffffffffffff826111a8565b6111ef86836111a8565b95508019841693508086168417925050509392505050565b6000819050919050565b600061122c61122761122284610ba1565b611207565b610ba1565b9050919050565b6000819050919050565b61124683611211565b61125a61125282611233565b8484546111b5565b825550505050565b600090565b61126f611262565b61127a81848461123d565b505050565b5b8181101561129e57611293600082611267565b600181019050611280565b5050565b601f8211156112e3576112b481611183565b6112bd84611198565b810160208510156112cc578190505b6112e06112d885611198565b83018261127f565b50505b505050565b600082821c905092915050565b6000611306600019846008026112e8565b1980831691505092915050565b600061131f83836112f5565b9150826002028217905092915050565b61133882610cda565b67ffffffffffffffff81111561135157611350610a76565b5b61135b8254611152565b6113668282856112a2565b600060209050601f8311600181146113995760008415611387578287015190505b6113918582611313565b8655506113f9565b601f1984166113a786611183565b60005b828110156113cf578489015182556001820191506020850194506020810190506113aa565b868310156113ec57848901516113e8601f8916826112f5565b8355505b6001600288020188555050505b505050505050565b61140a81610ba1565b82525050565b60006020820190506114256000830184611401565b92915050565b7f53636f726520646f6573206e6f74206578697374000000000000000000000000600082015250565b6000611461601483610fe7565b915061146c8261142b565b602082019050919050565b6000602082019050818103600083015261149081611454565b9050919050565b60006040820190506114ac6000830185611401565b6114b96020830184611401565b9392505050565b7f4e487b7100000000000000000000000000000000000000000000000000000000600052603260045260246000fdfea2646970667358221220e6d1de7501ce949cf1cc7965771b2c3cdddfd63ca182ffe0dbee07c3b834480564736f6c634300081c0033",
  "linkReferences": {},
  "deployedLinkReferences": {}
}